S019000044656275672F62696E2F6669726D776172652E73313900
S31518001000000012007D3E001829270018C527001871
S31518001010DF270018F9270018132800180000000009
S315180010200000000000000000000000003D3F00180E
S31518001030D93E001800000000DB3F001833400018A6
S31518001040DF3E0018DF3E0018DF3E0018DF3E0018AE
S31518001050DF3E0018DF3E0018DF3E0018DF3E00189E
S31518001060DF3E0018DF3E0018DF3E0018DF3E00188E
S31518001070DF3E0018DF3E0018DF3E001810B5054C9D
S31518001080237833B9044B13B10448AFF30080012316
S31518001090237010BDA802100000000000A4BA0018A2
S315180010A008B5034B1BB103490348AFF3008008BDCD
S315180010B000000000AC021000A4BA0018154B002B53
S315180010C008BF134B9D46A3F5803A00218B460F4661
S315180010D01348144A121A04F0DEFF0F4B002B00D0E7
S315180010E098470E4B002B00D098470020002104008B
S315180010F00D000D48002802D00C4804F012FD04F02B
S31518001100D1FE2000290000F01DF904F017FD00BFDC
S315180011100000080000001200000000003B13001831
S31518001120A802100008301000235B0018415E001852
S3151800113038B52DED048B00F005FA01211E489FEDF8
S315180011401F8A9FED1F9A1C4C00F01EFC00F010FA27
S3151800115000F0F8F90021184800F088FB00F008FAAA
S31518001160F0EE488A4FF47A7000F01EF938EE098AC4
S31518001170F7EE007AB4EE678AF1EE10FAC8BFB0EE51
S31518001180688A00F0DFF918EE101A204600F06EFB98
S3151800119000F0EEF900F0D6F9204600F0A3FB05465C
S315180011A000F0E6F9284603F007FB02460B46054809
S315180011B005F0D2FFD6E700BFC402100000000000F9
S315180011C00AD7233CDCAD001808B500F0BBF94FF47C
S315180011D08071034800F0DEFBBDE8084000F0C8B98E
S315180011E0C402100008B5074B1A6852B901210648FF
S315180011F000F0E6FE4FF461210348BDE8084000F010
S31518001200D9BD08BD280410002004100002284FF08C
S31518001210000309DDC21E074951F8220041F82230A1
S3151800122020B103685B681847184670474FF0FF30BF
S31518001230704700BFDC02100002282DE9F0410C4669
S31518001240154611DC0F4B1B680BB9FFF7CBFF0E4E7B
S315180012506719BC4205D014F8011B304600F02AFE67
S31518001260F7E72846BDE8F0810338084B53F8200005
S3151800127020B10368BDE8F0411B6818474FF0FF30EE
S31518001280F0E700BF2804100020041000DC0210004C
S31518001290022810B50C460ADC0B4B1B680BB9FFF776
S315180012A0A1FF0A4800F0C6FD2070012010BD0338C2
S315180012B0074B53F8200020B10368BDE810409B681F
S315180012C018474FF0FF30F1E72804100020041000EB
S315180012D0DC021000022807DD0338064B53F82000FD
S315180012E020B10368DB681847012070474FF0FF30BC
S315180012F0704700BFDC021000022807DD0338064BD2
S3151800130053F8200020B103681B691847002070475E
S315180013104FF0FF30704700BFDC021000022808B5F6
S3151800132004D84FF400534B60002008BD04F000FCAD
S31518001330092303604FF0FF30F7E708B502F08CFC7D
S3151800134008BD704708B500F04FFCFFF7FAFFBDE877
S315180013500840FFF7EDBE01F069BA000038B5074C32
S3151800136023680546986804F0ADFC2368D86804F02D
S31518001370A9FC0DB100F01AF8FEE700BFCC0010006A
S3151800138008B502F077FC08BD08B502F07BFC08BD6D
S3151800139008B104F017BE704704F0E2BE04F03ABF75
S315180013A004F090BE04F07FBE01F0D6BE08B500F07A
S315180013B0C9F8962000F0BBF8962000F0B8F8F8E7C0
S315180013C070B50D46A0B0044600F0BCF82A46214672
S315180013D0684606F07DFE051E10DD0A4B1A681AB916
S315180013E00121094800F0ECFD074E00241DF90410F0
S315180013F03046013400F05EFDA542F7D100F0B8F88A
S3151800140020B070BD28041000200410000FB407B5D2
S3151800141004A951F8040B0191FFF7D2FF03B05DF848
S3151800142004EB04B070470FB407B504A951F8040BC0
S315180014300191FFF7C5FF012004F080FB10B50446A3
S3151800144001300DD110BDA34209D12046896800F09C
S31518001450FFF820460021BDE8104000F041B90C31D4
S31518001460B1F900305A1CEED10248BDE81040FFF71A
S31518001470DABF00BF39AE0018884208B508D0431C39
S3151800148006D0013106D00448FFF7CDFF4FF0FF31E3
S31518001490084608BD0146FBE708AE0018B1F900304A
S315180014A05A1C01D118467047834201D148687047C3
S315180014B00C31F3E7421C10B5044607D0FFF7EEFFD0
S315180014C0431C044602D10248FFF7ADFF204610BD63
S315180014D019AE0018B1F900305A1C01D118467047D8
S315180014E0834201D1886870470C31F3E7421C10B566
S315180014F0044607D0FFF7EEFF431C044602D1024804
S31518001500FFF791FF204610BDEAAD0018014800F01C
S3151800151043B800BF4CAE001838B5044600F0E8FAD8
S31518001520054600F0E5FA401BA042FAD338BD4FF441
S315180015307A735843FFF7F0BFEFF31080C04300F0FB
S315180015400100704708B5FFF7F7FF72B6064B1A6821
S3151800155022B980F00100054AC0B210701A681A68DC
S3151800156001321A6008BD00BFF0031000EC0310002A
S3151800157008B5074B1A6852B1FFF7DEFF1A68013A29
S315180015801A601B681BB9034B1B7803B962B608BDF2
S31518001590F0031000EC03100070B50368DB6804460E
S315180015A0984763685A6823681AB99B68BDE87040FB
S315180015B018475B68156898476368281A00285A6898
S315180015C008DC9168596063681B68002BE9D050687D
S315180015D09847E6E7236810681B69BDE87040184706
S315180015E00148FFF7D9BF00BF68AE001870B50E46A0
S315180015F00446154600F084FD013609D02046002120
S3151800160000F0A4FD29462046BDE8704000F09ABDBA
S3151800161070BD0322FFF7EABF70B50E46044615469D
S3151800162000F06EFD01360ED00035636818BF01252F
S3151800163020461D60012100F089FD20460021BDE8E5
S31518001640704000F07FBD70BD0022FFF7E5BF0000B7
S315180016502DE9F0410712C6B2042F0D461F4C4FEA6A
S3151800166046081ED0052F26D0012F07D1082E05D1E2
S3151800167008F09EFF042801DD85F0010554F827308F
S3151800168046440722B24023EA020344F8273054F8A6
S31518001690271005F00705B5400D4344F82750BDE857
S315180016A0F081012EEAD9A369032202FA08F223EA85
S315180016B00203A361E2E7012E4FF0030306D8A269DD
S315180016C008F114018B4022EA0303F2E7E269A8F154
S315180016D004018B4022EA0303E361CFE7441000407C
S315180016E07047000030B50446C568A368B0F9100005
S315180016F0AB4285B014D101466846FFF7A5FF019B9A
S3151800170001221A602368DAB2032A15D8124903F19E
S315180017100802C86B012393400343CB6305B030BD61
S3151800172035B901466846FFF78FFF019B1D60E9E74B
S315180017300A49FFF783FEE5E7042A05D162691368AB
S3151800174043F001031360E9E7052AE7D062691368D5
S3151800175043F48033F6E700BF0030014084AE00182A
S315180017600268D3B2032B07D80B4BD86BC0F30320F0
S31518001770D04000F001007047042B04D14369186863
S31518001780C0F340007047052B1DBF43691868C0F3A6
S3151800179000400120704700BF0030014010B50378A3
S315180017A0032B10D8D0E90242944204F1FF331EBF2E
S315180017B09B1A9BB202F1FF3241690CBF1B0443EA24
S315180017C002430B6010BD042B10D1C3684169072B67
S315180017D09CBF0823C360C268806843F6F07303EAA7
S315180017E002130A4A02EA00421343EAE7052BE9D133
S315180017F0416983680A681B0122F4E02203F4E02396
S3151800180022F0F002134343F01003DAE70000FF0753
S315180018101FB5D0E902239A42044607D1B0F9101031
S315180018206846FFF711FF019B00221A602368DAB297
S31518001830032A0AD80C480833C26B012101FA03F3AC
S3151800184022EA0303C36304B010BD042A05D16269F2
S31518001850136823F001031360F5E7052AF3D06269CC
S31518001860136823F48033F6E70030014010B52DEDE8
S31518001870028B044608EE101AFFF772FF10B12046C5
S31518001880FFF7C6FFB5EEC08AF1EE10FA1CD4F7EED4
S31518001890007AB4EE678AF1EE10FAC8BFB0EE678A1E
S315180018A0D4ED027AF8EE677A67EE887AFCEEE77A74
S315180018B017EE903A5BB9C4ED037ABDEC028B20465D
S315180018C0BDE81040FFF70EBF9FED058AE8E7E2680E
S315180018D09A42F2D0C4ED037A2046FFF75FFFECE791
S315180018E000000000D0ED037AB8EE677AD0ED027AE0
S315180018F0F8EE677AC7EE276AF7EE007AF4EE676AAB
S31518001900F1EE10FACCBF17EE900A16EE900A704751
S31518001910F8B504460D46FFF723FF10B12046FFF72A
S3151800192077FF6368164AA3FB0501EF1703FB071138
S31518001930002302F0E9FFA368834218D0E3B1D4ED7F
S31518001940037AF8EE676A07EE903AB8EE677A86EE8B
S31518001950876AA06007EE900AF8EE677A204667EE67
S31518001960867AFCEEE77AC4ED037AFFF717FF20466E
S31518001970BDE8F840FFF7B6BE9FED026AE9E700BF7B
S3151800198040420F00000000004FF47A735943FFF7E6
S31518001990BFBF000038B50D4604461D492846FFF757
S315180019A089FD1C4BC0B2206053F8203063614FF09C
S315180019B0804325829A6842F004029A6004285A6B7A
S315180019C017D822F0FF0242F0807242F083025A635F
S315180019D0114B6360204644F62061FFF799FF2046B5
S315180019E00021FFF743FF28460949BDE83840FFF7AD
S315180019F025BD05280BBF22F47F4222F47F0242F050
S31518001A00007242F080625A634FF48043E1E700BFE8
S31518001A1084AE001880001000A025260038B52C4D7D
S31518001A202B68002B4CD14FF080444FF0FF32A3683F
S31518001A3043F00803A360274B1A609A6842F0020223
S31518001A409A6008F0D3FC244B244A1B68B3FBF2F2C5
S31518001A504FF49673534313F1FF3332D2636843F44A
S31518001A608073636008F0A4FD04281D4B2BDC1D4A07
S31518001A70126842B31C4A12682AB3A2FB0301C20BAE
S31518001A8042EA41422262194A136843F0100313606E
S31518001A904FF08043596841F480215960116821F04C
S31518001AA00801116000221A655A6842F400325A6019
S31518001AB05A6822F480725A6000F00AFC01232B60DF
S31518001AC038BD626AC7E74FF080421362DBE700BF92
S31518001AD0FC03100000200040A400100000093D007F
S31518001AE0D07B6308F82F1000FC2F10000820004048
S31518001AF008B5134B1B680BB9FFF790FF08F058FD94
S31518001B00042812DC0F4B1B687BB10F4B1A6862B1A5
S31518001B104FF080430D49586A0023A0FB010102F0DB
S31518001B20A3FE0B4B1B68184408BD4FF080435A6A36
S31518001B30064BA2FB0323D00B40EA4340F4E700BF51
S31518001B40FC031000F82F1000FC2F100040420F0065
S31518001B50F42F1000F8B50446FFF7CAFF211A00291A
S31518001B6003DCBDE8F840FFF73BBD134C134AA368E6
S31518001B7023F00103A360CB17DD03C803002345EA4E
S31518001B80514102F0C1FE0D4D0D4AA0FB05671268C2
S31518001B9005FB0177F30B43EA47435208B2FBF5F20C
S31518001BA053432360A36843F00103A360A36823F09B
S31518001BB00403A360F8BD00BF0020004040420F0098
S31518001BC0A0001000024A936843F00403936070471C
S31518001BD000200040034B82B0DB680193019B019300
S31518001BE002B070470020004008B500F089FB08F0E5
S31518001BF0DFFC042805DC4FF4FA70BDE8084008F04D
S31518001C0055BD08BD2DE900480D4B1B68ABB10D4BF2
S31518001C100D4A19681068C1F30E030344C3F30E0086
S31518001C2010600A4ADB0B03EBD133D2E9000110EB43
S31518001C30030B41F1000CC2E900BCBDE8008800BFE7
S31518001C40000410000804100004041000100410000A
S31518001C50022870B50D463BD0042802D000B9936906
S31518001C6070BD1E49282303FB0513191DB3F904007B
S31518001C7001301ED100242822184E6A43B118B058D4
S31518001C8040B114B991F8263023B3154B214653F8B1
S31518001C9025309847002DE3D1002CE1D196F826304F
S31518001CA0002BDDD00F4B1B68002BD9D0BDE8704038
S31518001CB0184710698006DDD449680120086093F832
S31518001CC02640002CD6D1536823F001035360D2E77F
S31518001CD00124D0E7002DE1D0C2E700BF2C04100084
S31518001CE0180410007C041000034A9068002100F0C4
S31518001CF00F00FFF7ADBF00BF00200140034A9068F0
S31518001D00012100F00F00FFF7A3BF00BF0000184025
S31518001D1070B50B46056822498D4206D001F5B711F4
S31518001D208D4217D000210C4601E01E490724A2B1A6
S31518001D306A68012606FA03F313436B60204600F01F
S31518001D4019FB194B1A19F82106FA04F482F800132C
S31518001D501C6070BD15490924E9E7012B0AD01449FE
S31518001D604268282606FB021292F8261092F82520B9
S31518001D70D142EED16968012202FA03F621EA060178
S31518001D8069600168B3FA83F349685B0902FA03F3D9
S31518001D900B4202BF044B02FA04F4C3F88040D8E79A
S31518001DA000200140E91C001800E100E0FD1C0018A5
S31518001DB02C04100010B50F4B04681B68B3FBF1F127
S31518001DC0E36843F08003E3600368C1F307141C60FB
S31518001DD0036801F00F02C1F307315960530801680F
S31518001DE0D21A03EB02138B620268D36823F08003BE
S31518001DF0D36010BDA000100030B5013AD2B2032A44
S31518001E0098BF0B4C006898BFA256C56888BF0022B9
S31518001E1003F1FF33A1F1050194BF0124144641EAE9
S31518001E20830141EAC40141EA02112943C16030BD68
S31518001E3020AF001830B503685A69D207FCD519685F
S31518001E401B6913F02003C9B210D1094C4268282522
S31518001E5005FB0242141DB2F90420013206D062684D
S31518001E6013600268536843F001035360084630BD97
S31518001E702C04100010B5D0E900231BB9106A00F421
S31518001E80002013E0106910F02000F7D10849282423
S31518001E9004FB031303F11401B3F914300133EDD025
S31518001EA08B681B6813B9106AC0F3C04010BD00BF19
S31518001EB02C04100038B504460D462046FFF7DAFF05
S31518001EC00028FAD123681D6038BD00002DE9F74FA8
S31518001ED09A464368354D0468354F00938B4628213A
S31518001EE001FB03F8914605EB08024FF6FF7CA2F8B2
S31518001EF014C0A2F804C0426801FB0251002281F8FE
S31518001F00252011460646BC420CBF3C460024FFF766
S31518001F10FFFEBBF1000F07D1264A136A23F004030C
S31518001F20136203B0BDE8F08F23494846FFF7B6FAA7
S31518001F30224983465046FFF7B1FAB84231D101908B
S31518001F401CB31E495046FFF779FA08F1140051469A
S31518001F502844FFF75EFB019A934516D11649484661
S31518001F60FFF76CFA009B4FF0280808FB0350494608
S31518001F700430FFF769FB736808FB0355012285F8DF
S31518001F80252000213046FFF7C3FE2369094A43F08E
S31518001F902003236147F63E436362136A43F0040342
S31518001FA0BEE7BB45F1D1002CD8D1EEE72C041000C2
S31518001FB000001840001000403CAF001824AF00186D
S31518001FC02DE9F041884604463A493B4F40461546A6
S31518001FD0FFF770FA394906462846FFF76BFA0146A5
S31518001FE03046FFF749FAB84206462FD0344B984286
S31518001FF02FD000222660B26023685A6023684FF4F7
S3151800200080711961236842F2010159622046012341
S315180020100821FFF7F1FE27494046FFF70FFA27492F
S315180020202846FFF70BFAB8F1FF3F1BD002214046AE
S31518002030FFF756FB6A1C1BD002212846FFF750FBF8
S315180020402268936843F00103936011E000236360EC
S31518002050CFE701234FF080426360136843F40013FF
S315180020601360C6E76B1C03D002212846FFF738FB1E
S3151800207062681448282505FB02024FF6FF71918005
S31518002080636805FB0303204699824FF0FF331A460F
S315180020900021FFF71BFFBE4207D10B4B0B4801224D
S315180020A01A602146082203F0EBFF236807229A607C
S315180020B0BDE8F08184AF00180020014054AF001825
S315180020C0000018402C0410002804100020041000EA
S315180020D008F07EBA70B5094D29460446FFF706FA88
S315180020E0294606462046FFF7E5F9314605462046B5
S315180020F0FFF7AEFA05F01F0070BD00BFB4AF0018A9
S3151800210038B54B1C0546018014D00846FFF7E2FF88
S31518002110831F032B044603D80121C0B208F0A4F983
S31518002120054BA40023446B60044B2344AB60044B5B
S315180021302344EB6038BD00BF000102428001024211
S3151800214000020242B0F90000FFF7CABA70B5B1FA38
S3151800215081F405460E4608F02BFA04284FEA541463
S315180021600EDD0949B5F90000FFF7A4F9074B00F091
S315180021701F0023FA00F0C30702D5341C18BF012428
S31518002180EB681C6070BD00BFB4AF00180CC13300FB
S3151800219010B50D4C2368ABB94FF08042936843F0E5
S315180021A008039360094B4FF0FF32DA601A6842F061
S315180021B040021A601A6842F020021A6000F088F885
S315180021C00123236010BD00BF8004100008200040C2
S315180021D008B5044B1B680BB9FFF7DAFFBDE80840D2
S315180021E0FFF786BC80041000F8B50446FFF7F0FF29
S315180021F0241A002C03DCBDE8F840FFF787B9154D03
S315180022002B6823F020032B6008F0D2F904284FEA34
S31518002210E47718DC104B1B68ABB1104B1B6893B1F5
S31518002220A3FB04010E4A03FB0711002302F06CFB03
S315180022300130E8602B6843F020032B602B6823F0ED
S3151800224080032B60F8BDF903054A0023E00341EA31
S315180022505441EBE708200040F82F1000FC2F10001F
S3151800226040420F00024A136843F080031360704718
S3151800227008200040054B82B09A690192019A019292
S315180022801A6822F020021A6002B07047082000402F
S3151800229010B50E4B1C68630701D5FFF7A1F9200787
S315180022A001D5FFF733F9A1070ED54FF080435A68C9
S315180022B042F0C0525A60BFF34F8F5A68D200FCD40E
S315180022C0BDE81040FFF79EBC10BD00BF10200040AF
S315180022D008B5084B1A785AB9012207491A70062008
S315180022E000F048F8054BF82283F8062340221A60B6
S315180022F008BD00BF840410009122001800E100E018
S315180023004FF080439A69C2F30133012B074B0BD068
S315180023102CBF07490749196012F4006F064B0CBF0A
S31518002320044A064A1A6070470449F4E7A4001000E4
S3151800233000688909005A6202A000100000B4C4049B
S31518002340094BD3F8882042F47002C3F88820074A4C
S315180023509A60D968064A21F4E0610904090C0A430F
S31518002360DA6062B6704700BF00ED00E00010001892
S315180023700006FA0530B50D4A946895680C4A9542D8
S3151800238023460ED10B4D4FF48013E218A2F5801296
S31518002390126843F8042BAB42F7D1044A4FF4801362
S315180023A09360103043F8201030BD00BF00ED00E0F8
S315180023B0001000187C001000F8B5014620F01F0523
S315180023C00B480C4F0C4EFFF721F80024630705D174
S315180023D005F11C0229463846FFF718F855F8041B6C
S315180023E030460134FFF712F8402CEFD1F8BD00BF84
S315180023F0A8B50018C0B50018CFB5001830B50446F2
S3151800240085B09648FFF702F8216A9548FEF7FEFF51
S31518002410616A9448FEF7FAFFA16A9348FEF7F6FF39
S31518002420E16A9248FEF7F2FF21689148FEF7EEFF3F
S3151800243061689048FEF7EAFFA1688F48FEF7E6FF45
S31518002440E1688E48FEF7E2FF21698D48FEF7DEFF48
S3151800245061698C48FEF7DAFFA1698B48FEF7D6FF4B
S31518002460E1698A48FEF7D2FF216B8948FEF7CEFF4D
S31518002470616B8848FEF7CAFFA16B8748FEF7C6FF4F
S31518002480E16B8648FEF7C2FFEFF31081844B854A4D
S315180024908548002908BF1A46FEF7B8FFEFF31381DF
S315180024A08248FEF7B3FFEFF311818148FEF7AEFFBE
S315180024B0EFF314817F4D8048FEF7A8FF696A7F48BD
S315180024C0FEF7A4FFA96A7E48FEF7A0FFE96A7D48D1
S315180024D0FEF79CFF296B7C48FEF798FF696B7B48D3
S315180024E0FEF794FFA96B7A48FEF790FFE96B7948D7
S315180024F0FEF78CFF7848FEF789FFE06B0028B4BF1B
S315180025004E216E2110F0804F14BF5A227A2210F0F5
S31518002510005F14BF4323632310F0805F14BF562057
S31518002520762000906D48FEF771FFEFF30981EFF3FF
S3151800253008826B48FEF76AFFAD6A6A480395FEF78C
S3151800254065FFE9B26848FEF761FF9DF80C109DF823
S315180025500C206648C2F3400201F00101FEF756FF4F
S315180025609DF80C109DF80C206148C2F30012C1F3B7
S31518002570C001FEF74BFF9DF80C109DF80C205D4826
S31518002580D209C1F34011FEF741FF5B48FEF73EFF43
S31518002590C5F307215948FEF739FF9DF80D109DF828
S315180025A00D205748C2F3400201F00101FEF72EFF35
S315180025B09DF80D109DF80D205248C2F3C002C1F3C4
S315180025C08001FEF723FF9DF80D109DF80D204E484B
S315180025D0C2F34012C1F30011FEF718FF9DF80D1053
S315180025E04A48C909FEF712FF4948FEF70FFF290C9A
S315180025F04848FEF70BFFBDF80E10BDF80E204648EA
S31518002600C2F3400201F00101FEF700FFBDF80E10FB
S31518002610BDF80E204148C2F3C002C1F38001FEF78F
S31518002620F5FEBDF80E10BDF80E203D48C2F3402247
S31518002630C1F300212034FEF7E9FE2046FFF7BCFE61
S31518002640EFF309839C4203D0EFF30980FFF7B4FE3A
S31518002650344805B0BDE83040FEF7D8BEE1B10018E1
S3151800266011B200181DB2001829B2001835B2001898
S3151800267041B200184DB2001859B2001865B20018C8
S3151800268071B200187DB2001889B2001896B20018F7
S31518002690A3B20018B0B20018C2B20018D4B200180B
S315180026A0DEB10018DAB10018E2B2001800B300184B
S315180026B013B3001800ED00E024B3001835B3001862
S315180026C044B3001853B3001862B3001871B3001856
S315180026D080B300188FB300189EB30018B2B3001851
S315180026E0C9B30018ECB3001805B400181CB40018C8
S315180026F03AB4001858B4001876B4001885B40018FF
S315180027009DB40018BDB40018DDB40018FDB4001847
S3151800271010B5001821B5001839B5001858B50018A5
S3151800272077B5001896B500180148FEF76FBE00BFBA
S31518002730ADB1001808B5084B1B68DB07044600D571
S3151800274000BE0648FEF762FE2046FFF757FE04480D
S31518002750FEF75CFEFEE700BFF0ED00E070B1001872
S3151800276089B1001808B504460448FEF74FFE2046FE
S31518002770FFF744FE0248FEF749FEFEE794B100183B
S3151800278089B1001808B504460448FEF73FFE2046EE
S31518002790FFF734FE0248FEF739FEFEE758B1001877
S315180027A089B1001808B504460448FEF72FFE2046DE
S315180027B0FFF724FE0248FEF729FEFEE7C0B100180F
S315180027C089B100181EF0040F06BFEFF3088088B011
S315180027D0EFF3098020E9F00FFFF7ACBF70471EF042
S315180027E0040F06BFEFF3088088B0EFF3098020E9DD
S315180027F0F00FFFF7B7BF70471EF0040F06BFEFF3D1
S31518002800088088B0EFF3098020E9F00FFFF7BABF08
S3151800281070471EF0040F06BFEFF3088088B0EFF379
S31518002820098020E9F00FFFF7BDBF704708B50949C1
S315180028300A68D31D0344084823F00703834206D9C0
S3151800284003F076F90C2303604FF0FF3008BD0B60D8
S315180028501046FBE7A800100000001900FFF738BC67
S3151800286008B5024C23689847FCE700BFAC00100077
S3151800287010B542687AB101F023FA044601F0C8FA95
S3151800288001216170204601F077F921460448BDE818
S31518002890104001F0FDB942880132428010BD00BFD8
S315180028A0FC2E1000032100F0E9B80323037000235F
S315180028B04380C0E90133C360704700002DE9F8432F
S315180028C043880546002B66D0344E8168326891429B
S315180028D061D1013B9BB243801BB100242046BDE861
S315180028E0F88333681A6A904229D1C2681A6293F833
S315180028F024201C6A5CBB9A706B68DFF8A480002BD6
S315180029003BD0284601F0DCF9214607464FF001096D
S3151800291001F032F9384601F07BFAA5F80290AF605B
S315180029203B6AEB603168D8F804303D628A789B7848
S315180029309A4214D3384600F07DF8CFE70A46002AA3
S31518002940D5D0D168A942F9D1E968D160CFE76168D5
S3151800295019B189788A4238BF0A46E468CAE74046F8
S3151800296001F096F93946404601F092F9336883F832
S31518002970019087F801902046DDE7D8F804303168D1
S315180029809A788B789A42A8D9404601F081F933682B
S3151800299001225A70EFE7FF24A0E700BFC804100011
S315180029A0FC2E100070B50E46144D41882B6804464F
S315180029B041B983601A6AC2601862638801336380FA
S315180029C0002070BD82689A42F7D08EB19B789178B4
S315180029D0994203D29370806801F002FA63682968F5
S315180029E043B1204601F054F90921304600F046F863
S315180029F00120E6E76160C1E90134F5E7C804100073
S31518002A00054B586002234370044B1B681BB11B69A6
S31518002A100BB1806B18477047C8041000E00410000B
S31518002A2008B5034801F04CF9BDE80840FFF7E8BFC0
S31518002A30FC2E100070B5044618B9BDE87040FFF7B3
S31518002A40EFBF0C4EA278306883789A424FF0010592
S31518002A5008D901F047F933685D702046BDE8704023
S31518002A60FFF7CEBF657021460348BDE8704001F0F8
S31518002A700FB900BFC8041000FC2E100038B50D465B
S31518002A80014680B14FF6FF739842074C02D0206872
S31518002A9001F032F9236805485D7001F011F9BDE8B7
S31518002AA03840FFF7ADBF38BDC8041000FC2E100023
S31518002AB0024B186800B1C078704700BFC8041000F0
S31518002AC010B5B0B91A4B1A6891701B6883F82410A0
S31518002AD0184843689B788B4201D8002010BD144CC7
S31518002AE0216801F0D5F8236801225A70FFF798FF7C
S31518002AF0F3E7114B1B88834217D301380F4B53F852
S31518002B00204094B10A4BA1701B6884F824109C428B
S31518002B10DED0204601F064F96378012BDDD1054833
S31518002B2001F0CEF8FFF786FFD7E7FF20D6E700BFFC
S31518002B30C8041000FC2E100010B60018B00A1000B9
S31518002B402DE9F04711F0FF0F0D468046214816462D
S31518002B509A4608BF013500F04EFE044620B94FF0DC
S31518002B6000094846BDE8F0871B4B06631B881B4EB9
S31518002B70280AA06200218B4201F10109EFD006EB69
S31518002B8089020F4652F8042C4946002AF3D1EDB2B1
S31518002B904FF4807384F80390C4F81CA02380A570A2
S31518002BA084F824502262C4E90122C4E90322C4E944
S31518002BB0052284F8252018B9094800F01CFE206360
S31518002BC02046414600F08EFF204646F82740FFF77C
S31518002BD031FFC6E71807100010B60018B00A100023
S31518002BE0080510002DE9F84F4E4D2B6810B1DA780C
S31518002BF0824241D100225A702C68DFF83C8101F0DC
S31518002C0072F9E06200F05CFF2B681C6A0127A4B910
S31518002C102A684549D3784548013B41F82340116B4A
S31518002C2000F0F6FD296842480C6300F0F1FD2C60AF
S31518002C30FFF7F6FE2046BDE8F88F6368B3B1204665
S31518002C4001F03EF80021064600F096FF304601F0E6
S31518002C50DFF877703146404601F01AF8E368678066
S31518002C60A660326AE26034621C46D0E7E268638086
S31518002C70C4E902331446CAE72E4B1B8883424ED347
S31518002C80294B471E994653F82760002E47D03046E1
S31518002C9001F090F8304601F0BBF8DFF89CB0346AC2
S31518002CA04FF0010ABCB949F827402048316B00F0AB
S31518002CB0AFFD314634631E4800F0AAFD1E482B6846
S31518002CC0426891789A789142B4D901225A70296843
S31518002CD000F0DEFFACE76368DBB1204600F0F0FFDA
S31518002CE00021804600F048FF404601F091F888F828
S31518002CF001A04146584600F0CBFFE368A4F802A0AD
S31518002D00C4F80880D8F82020E260C8F820401C468D
S31518002D10C8E7E2686380C4E902331446C2E7FF24B1
S31518002D2088E700BFC8041000B00A10000805100094
S31518002D301807100010B60018FC2E100038B5274BCF
S31518002D4027491A88002318469A4243D8254B2648FD
S31518002D501988264C3C2200F029FD254B25481A884F
S31518002D60254B42F00042196800F020FD234B1988C4
S31518002D70234B0822186800F019FD224B1D48002520
S31518002D80C4E90035A562C4E90255C4E90455A5612C
S31518002D902562A58400F02FFD1B492063204600F00C
S31518002DA0A1FE1A4B04221A705D60194B1A70C3E9FA
S31518002DB003559D82174B20461C6002236370FFF74C
S31518002DC01FFE154A154B12781D80DA70BDE838407B
S31518002DD000F094BB41F823000133B5E710B600188C
S31518002DE0B00A1000DCB50018180710008C04100083
S31518002DF02CB6001808051000D8B50018DEB500184E
S31518002E00F4041000000100FFF53B0018FC2E10001A
S31518002E10E42E1000C80410000DB60018EC0A1000B5
S31518002E2008B51E4B1A6842F47F021A601B681B020B
S31518002E3003F07F43DB43B3FA83F3194A1948126840
S31518002E400168DBB2C3F10803C2F30222934298BFAA
S31518002E50531C6FF0807202FA03F303F07F4321F0DC
S31518002E607F421343036000F0F1FD0F4B00281860F2
S31518002E7012DB00F1604000F56440FF2202701A6808
S31518002E8053099B0003F1604303F5614302F01F02E7
S31518002E90012101FA02F21A6008BD00BF20ED00E018
S31518002EA00CED00E01CED00E0E804100000B5DFF8BA
S31518002EB00CC000DFDFF808C000DFFEE7B9300018E5
S31518002EC0D130001830B50B4A1368002443B9036093
S31518002ED0816013B19D68691A996044B1206030BD4C
S31518002EE09D688D42F3D81C46491B1B68EEE7106097
S31518002EF0F5E700BFD4041000C0B1431C11D00C4B29
S31518002F00984211D80B4B1B684FF47A715A1E01FB65
S31518002F100020B0FBF3F34FF6FE70834206D898B242
S31518002F2070474FF6FF7070474FF6FE70704700BF38
S31518002F3000093D00E0B5001838B1830704D10378BD
S31518002F40002B18BF0020704700207047B0B50E4DF3
S31518002F50287800AFA8B90D4C236893F82410FFF70A
S31518002F60AFFD2368DA78FF2A03D1DA6A203282F3B2
S31518002F70098862680AB9C4E90023FFF751FF0123DB
S31518002F802B700020B0BD00BFD1041000C80410007B
S31518002F90014B1878704700BFD104100010B5EFF335
S31518002FA005841CB9EFF31484E40702D4034B18788C
S31518002FB010BDDFF80CC000DFFAE700BFD10410001F
S31518002FC0912F001890B589B000AFEFF30583002B49
S31518002FD033D1FFF7E3FF28B9194C246814B1646894
S31518002FE004B1A047EFF3148404F00304022C18D09C
S31518002FF0032C1CD0012C1ED007F1200484F3098859
S31518003000104C2478E40710D5022484F31488BFF3EF
S315180030104F8FBFF36F8FDFF830C000DF2437BD4600
S3151800302090BD084C2478E407F5D40324EDE7054C45
S315180030302478E407EFD5FF20F0E78220EEE700BFFB
S31518003040E00410000EB600184D2F001870B50B4688
S315180030501646024610B90024204670BD006800289E
S31518003060F9D0B2F90440E51CADB2062DF3D8D168F3
S31518003070C1B11269043444EA0121FFF761FD002841
S31518003080E9D00A4B0A4A013853F82040E36A5A63D2
S31518003090084B1B6843B19B6833B13146E0789847B3
S315180030A0A063D9E70A46E5E7A663D5E7B00A100094
S315180030B0AD2E0018E004100008B5FFF7F9FC18B19A
S315180030C00138024B53F8200008BD00BFB00A1000A3
S315180030D010B5FFF731FF044670B1084B1B681BB1DA
S315180030E0DB680BB1806B9847E078FFF77BFDFF280C
S315180030F00CBF8120002010BD8020FCE7E0041000E2
S31518003100F0B506460D461446EFF305878FB9EFF36B
S315180031101487FF0706D4084F3F781FB9BDE8F0405B
S31518003120FFF794BF304629462246DFF810C000DF65
S31518003130F0BD0020FCE700BFD10410004D30001888
S315180031400022FFF7DDBF08B520B1FFF7D5FEFFF760
S31518003150A9FB402008BD000010B5EFF305841CB983
S31518003160DFF808C000DF10BD8220FCE747310018E1
S31518003170830705D138B1436901691B68184670473A
S3151800318000231946FAE70346FBE70000034B1B68C2
S315180031900BB1986870474FF0FF307047D404100091
S315180031A010B504460846DFF80CC000DFC4E9000174
S315180031B0204610BD7131001810B540B1046824B10D
S315180031C0237823B92046FFF770FB204610BD00244C
S315180031D0FBE770B510F0030405460E4611D180B111
S315180031E00378032B0DD10846FFF786FE01462846BD
S315180031F0FFF7D8FB012806D1002E14BFC120812065
S3151800320070BD8020FCE72046FAE7820708B50AD188
S3151800321048B10378032B06D1FFF750FBFF280CBFE4
S315180032208120002008BD8020FCE7000030B5044648
S31518003230EFF305857DB9EFF31485ED0706D4074D31
S315180032402D781DB9BDE83040FFF7B6BF2046DFF828
S3151800325010C000DF30BD0020FCE700BFD10410000D
S31518003260B931001810B5EFF305841CB9DFF808C09A
S3151800327000DF10BD8220FCE7D331001810B5EFF33C
S3151800328005841CB9DFF808C000DF10BD8220FCE7F2
S315180032900B32001810B5044660B1016851B1406888
S315180032A038B1037833B90431890089B200F080F94E
S315180032B0606810BD0020FCE738B50F4C23780BB9B1
S315180032C0FFF73CFD0D4B25781B68FF229A7065B9F0
S315180032D029460B48FFF7DEFF0A4B2A46186029468F
S315180032E00948FFF7B3FE094B186001232370084BF2
S315180032F00020187038BD00BFD0041000C804100094
S3151800330014B60018A80A100030B60018AC0A100037
S31518003310D104100010B5EFF305845CB9EFF31484EB
S31518003320E40703D4BDE81040FFF7C6BFDFF808C0AE
S3151800333000DF10BD8220FCE7B93200182DE9FF41E5
S315180033400C46804618B30378012B25D10846FFF79B
S31518003350D3FD02A90246404600F036F9012811D1DC
S315180033600020002C0246034618BF40200299044646
S315180033700D4616461F462046294632463B4604B099
S31518003380BDE8F0810020024603461020EEE78024AF
S31518003390054606460746EEE7002580242E462F46A4
S315180033A0E9E770B50E461446054660B15AB9037872
S315180033B0012B08D100F05AF938B12846314600F0E9
S315180033C059F9204670BD8020FCE78120FAE70000F5
S315180033D0F8B5114E34682CB1A368104F013BA360A1
S315180033E0A26802B1F8BD2568386835602146FFF72E
S315180033F0D8FF10B1042000F0FFFB6379012B07D129
S31518003400E1682046FFF75EFD002DEBD02C46E7E776
S3151800341001232371F8E700BFD4041000A80A10008E
S3151800342070B5084D044601262B6853B14CB19868FF
S31518003430A04204D89E60241AFFF7CAFFF4E7001BBF
S31518003440986070BDD40410007FB504461646084629
S3151800345001B122B180232360204604B070BD0B78D9
S31518003460012BF7D102A900F00CF9042808BF102384
S3151800347001AD14BF0196019395E8070084E807008B
S31518003480EAE70000F8B50446EFF305871FB1FFF722
S31518003490DBFF2046F8BD08461146DFF80CC000DFF2
S315180034A0C4E90001A260F4E73D3300187FB50A4C61
S315180034B021684FF0FF3203A8FFF7E4FF039B102B98
S315180034C0F6D1049901A8FFF76BFE019B002BEFD0EC
S315180034D002989847ECE700BFA80A100000B5DFF875
S315180034E008C000DF5DF804FB9938001800B5DFF84E
S315180034F008C000DF5DF804FB29390018034B0022C9
S315180035001A60034A1268DA80704700BFD8041000A0
S3151800351028B6001808B50E4B5A680E4B19880E4B6C
S315180035201868904204D01A60DA88013A0A449A80D8
S315180035309A888A420AD1002205481A6000F0C0FB10
S31518003540BDE808400146024800F0A2BB08BD00BF0E
S31518003550FC2E100088041000D804100010B5038B38
S3151800356042781943062A04460183438B15D133EA58
S31518003570010219D121EA03012183204600F048FCF3
S31518003580012320466370628B082100F0FEFA21465B
S315180035900648BDE8104000F07BBB052A04D111EAA5
S315180035A0030201D04283E5E710BD00BFFC2E1000D0
S315180035B0012310390380890800238370C0E9013379
S315180035C08381C1817047000038B583890446154642
S315180035D0002B36D04389043350F823300B604389C7
S315180035E0C28901339BB29A42438104BF00234381A7
S315180035F04368F3B14378022B1BD100F061FB00211D
S31518003600054600F0B9FA2389E9691A1D013344F809
S315180036102210E2899BB29A42238108BF00232846CA
S3151800362008BF238100F0F4FB2846FFF703FA0020B1
S3151800363038BDEFF3108372B6A389013BA38162B636
S31518003640F5E74AB1084B196843683BB100F020FB0F
S3151800365008212846FFF712FA0120E9E74160C1E977
S31518003660013001234370F3E7C8041000C28980892A
S31518003670101A704708B500F0DFFBBDE8084000F0E7
S315180036809BB910B583890446F3B14389043350F8BE
S3151800369023300B604378022B04D1002100F0CCFBB9
S315180036A000F08AF9EFF3108372B6A389013BA38160
S315180036B062B66389E28901339BB29A42638101D16A
S315180036C000236381042000E0184610BD70B54268D7
S315180036D004460E46002A49D04578022D20D0032DDF
S315180036E00AD0012D59D100F0EBFA044632461021C2
S315180036F000F04BFA65700EE0084600F07CF80546B7
S3151800370000284AD0204600F0DBFA2946044600F085
S3151800371033FA01236370204600F07AFB214620E035
S3151800372000F0CEFA0021054600F026FA2389EA6948
S31518003730043344F82320EFF3108372B6A3890133B8
S31518003740A38162B62389E28901339BB29A42238107
S3151800375004BF0023238101236B70284600F058FB11
S3151800376029461148BDE8704000F092BA8189C3898C
S31518003770994213D20389043340F82360EFF3108378
S3151800378072B683890133838162B60389C18901338D
S315180037909BB29942038100D1028170BD0320BDE816
S315180037A0704000F029BA00BFFC2E1000002ABBBFDB
S315180037B022F000420732033222F00702A8BF22F095
S315180037C0030210B5B4BF10230C2392B1D4188C423F
S315180037D00FD8014403445442C0E90112036021443E
S315180037E09818814202D300510346F9E70020186061
S315180037F010BD0120FCE7EFF3108372B6026803F0E0
S3151800380001030AB11168016003B962B61046704720
S3151800381081420DD343688B420AD9EFF3108372B6EF
S3151800382002680A60016013F0010003D162B670479E
S31518003830012070470020704770B5114B11481B685E
S31518003840114A1249002B0BDA114B05241C6001236F
S31518003850037013689B0E23400B705B06136070BDD4
S315180038605E09012403F01F030A4D04FA03F345F811
S31518003870263004701368C3F300730B70DB06EDE78C
S31518003880E8041000E404100004ED00E0EC04100055
S3151800389010E000E080E100E010B5FFF7CDFF064B21
S315180038A0DA6832B19C8AFFF771FCA04228BF20461D
S315180038B010BD4FF6FF74F6E7E42E100070B5144BE2
S315180038C0144E1A681449154D1548002A0CDA154B6A
S315180038D007221A60002232700C782B7843EA840388
S315180038E09B0603600A7070BD53099B0003F1604381
S315180038F003F56143012402F01F0204FA02F21A606A
S31518003900002232700B782C7823431B07E9E700BF97
S31518003910E8041000E4041000E5041000EC0410009C
S3151800392004ED00E010E000E02DE9F0411D4B1E4CBF
S315180039301A684FF0010882F801800546186800F0E9
S31518003940D1F91A4B1A4900221A60CB680E4623B3CE
S315180039508B8A2268AB421BD8EF1A13442360A1F84E
S315180039601480F3685BB92846FFF75AFD114800F032
S31518003970A7F9FFF745F8BDE8F041FFF79FBF00F03C
S31518003980DFF9002FEFD023680133013F2360E8E702
S315180039902A445B1B22608B82E5E723682B4423604D
S315180039A0E1E700BFC804100088041000D80410000E
S315180039B0E42E1000FC2E1000054B1B7823B9054B7E
S315180039C04FF080521A607047034B01221A707047E5
S315180039D0E404100004ED00E0E504100038B5184BB7
S315180039E0184C1A6801215170186800F07BF965782F
S315180039F0A3783BB91448657000F062F9BDE8384001
S31518003A00FEF7FEBF04EBC503586802787AB9198920
S31518003A10FFF7A4FDE3780135AB4208BF0025EFF3A5
S31518003A20108372B6A378013BA37062B6E0E7012A49
S31518003A3003D19968FFF74AFEECE7FEF719FFE9E7A5
S31518003A40C8041000EC0A1000FC2E1000084B1A6867
S31518003A50084B1A6000225A60072243F8042C064ABB
S31518003A60136843F07F4313604FF0FF30704700BF71
S31518003A7044B6001814E000E020ED00E0704700009E
S31518003A8008B50C4B1A6801215170186800F02AF90C
S31518003A90FFF740FD084A13680133136000F050F928
S31518003AA0FFF796FC054800F00BF9BDE80840FEF74D
S31518003AB0A7BF00BFC804100088041000FC2E100011
S31518003AC0064B1A68D2E90B23934203D81A68044B9B
S31518003AD09A4202D0012000F08FB87047C80410002F
S31518003AE0A52E5AE2224A836AF0B51768026B9B081C
S31518003AF008BFC7F38D0302EB8302540748BF043A85
S31518003B004FF0807442E90214A2F14006A2F144056E
S31518003B101446A2F10C0C4FF0000E45F804EF65455B
S31518003B20FBD1C56942F8205C4163F900C66218D515
S31518003B30112B16D9103B5B08A2EBC3024FF0CC3100
S31518003B40083CA24211D16FF0070202FB0363016B16
S31518003B501A1D914203F108033CBF4FF0CC3243F8CB
S31518003B60042C036B034A1A60F0BD44E91011E7E709
S31518003B702CB60018A52E5AE290F82520C36A12B161
S31518003B806033196070472033FBE7C36A90F8250045
S31518003B9018B16033C3E9001270472033FAE7000002
S31518003BA008B50D48FFF742FB0C4B18600C48FFF799
S31518003BB03DFB0C4B18600C48FFF738FB0B4B186095
S31518003BC00B4801F0AEFF02F06DF900210846BDE87A
S31518003BD00840FDF7B7BB00BF24B60018E00E10006A
S31518003BE020B60018F80410001CB60018F0041000CF
S31518003BF0415E0018FEF734BE10B50446FFF75CFAAE
S31518003C0021460246BDE810400148FDF70CBC00BF2E
S31518003C10E4B5001870B40848084E094A09490A4B11
S31518003C200A4D0B4C3060121A0A482A605B1A236038
S31518003C30016070BC704700BF00F811000005100045
S31518003C40000012000000180000001900FC04100003
S31518003C50DC031000E0031000FFF75CFBFFF7DAFF48
S31518003C6003480021FFF76CFAFFF7ACF9FEE70000EE
S31518003C70B0001000024B4FF0FF311868FFF7F2BA88
S31518003C80F8041000014B1868FFF7F8BAF80410008A
S31518003C9030B502788C784368013AD2B213B19D7860
S31518003CA0A54207D2022A4B60416006D803B1996033
S31518003CB0886030BD18465B68F0E700238B60F8E72C
S31518003CC043685A6842600278013A022A4FF00002A5
S31518003CD006D8596809B188605A609A6018467047BC
S31518003CE05A60FBE7034B5A684260002282605860AC
S31518003CF0704700BFFC2E100010B5104BDA688AB159
S31518003D009A8ADC688A420CD3C460D860C468036196
S31518003D1004B12061521A92B28282998A8A1A9A82B8
S31518003D2007E03CB900248A1AC460D86003619A82F5
S31518003D30848210BDA38A1A442346E2E7E42E1000B3
S31518003D402DE9F041184DEB6853B1AB8A174FDFF8E0
S31518003D506080013BAB820026AB8A0BB9EC680CB9C4
S31518003D60BDE8F081A2683AB161685160626812B123
S31518003D70A16891606360A66021463846FFF788FF00
S31518003D80A38AAB826378042B01BFD8F80030E28A85
S31518003D909B18A38201236370E368EB60E3680BB199
S31518003DA01D61E6602661D7E7E42E1000FC2E100090
S31518003DB088041000836833B142685A60436863B157
S31518003DC082689A607047054B5A68904202D14268D9
S31518003DD05A6070471346002AF6D17047FC2E100019
S31518003DE010B5846801462CB94378012B0DD1074CC0
S31518003DF003E0A4682378002BFBD00846FFF7DAFF08
S31518003E002046BDE81040FFF743BF10BDFC2E10003A
S31518003E1003696BB1C268DA60C26852B19A8A818A3C
S31518003E200A449A82C26813610023C360002303619F
S31518003E3070479A82FAE7000030B40F4BDD78EFF33B
S31518003E40108272B69A78954207D901329A701A7802
S31518003E50541CA54208BF00241C7062B6DC78944234
S31518003E6005D903EBC203C3E9010130BC7047022030
S31518003E7030BCFFF7C1BE00BFEC0A10000C4880F337
S31518003E8008880C48804701280DD10B490B4A0C4B62
S31518003E909A42BEBF51F8040B42F8040BF8E70948DA
S31518003EA08047094800474FF004010868004700009A
S31518003EB000001200D1A400184CBC00188000100095
S31518003EC0A802100041230018BD100018FEE7FEE7EF
S31518003ED0FEE7FEE7FEE7FEE7FEE7FEE7FEE7FEE79C
S31518003EE080F309887047EFF309807047684680F3B6
S31518003EF0098856480078C00714BF0220032080F3AB
S31518003F0014887047DFF848C1EFF305831B0618BFFE
S31518003F106047EFF31483DB0708BF604700DF70477D
S31518003F20DFF830C1EFF305831B0618BF6047EFF3C0
S31518003F301483DB0708BF604700DF7047EFF309807B
S31518003F40816911F8021CC1BB90E80F1010B5E04743
S31518003F50BDE81040EFF3098C8CE807003E4B93E858
S31518003F600600914208BF704741B91EF0100F14D1D0
S31518003F703A49086820F0010008600EE01EF0100F9C
S31518003F800CBF0120002081F825002CE9F00FC1F89C
S31518003F902CC00CB4FFF794FD0CBC1A60D2F82CC0D8
S31518003FA0BCE8F00F92F8250000280CBF6FF0020E3F
S31518003FB06FF0120E8CF30988704710B5284A1268EC
S31518003FC0914209D8274C54F8214090E80F10A04781
S31518003FD0EFF3098C8CE80F0010BD10B5FFF7FEFC47
S31518003FE0BDE810401C4B93E80600914208BF704785
S31518003FF0EFF3098C1EF0100F0CBF0120002081F87A
S3151800400025002CE9F00FC1F82CC00CB4FFF758FDA9
S315180040100CBC1A60D2F82CC0BCE8F00F92F8250038
S3151800402000280CBF6FF0020E6FF0120E8CF3098881
S31518004030704710B5FFF724FDFFF7D2BF10B5FFF78D
S315180040401DFDFFF71DFDFFF7CBBF00000EB60018CC
S31518004050F737001811380018C804100034EF00E0BC
S3151800406000000000FCFFFFFF0378472B17D14378A9
S315180040704E2B14D18378552B11D1C378432B0ED1DF
S315180040800379432B0BD143792B2B08D183792B2B0F
S3151800409005D1C07901288CBF002001207047002067
S315180040A0704738B50246FFF7DFFF40B152F8184C93
S315180040B00025104600F026F825B100F06FF80446E2
S315180040C00125F6E7204600F05CF80378472B17D150
S315180040D043784E2B14D18378552B11D1C378432BA3
S315180040E00ED10379432B0BD143792B2B08D1837926
S315180040F02B2B05D1C07901288CBF002001207047D1
S315180041000020704738B5054600F026F801460268C3
S315180041102846A5F12004FFF7D8FF30B90AB100F0F8
S315180041202BF80C601446204638BD55F80C3C002B6D
S31518004130B4BFC3F10103013345F80C3C4B68A242E6
S3151800414003F1FF334B6028461CBF45F8102C0C6052
S315180041506C6A00F017FFE6E700487047142F100046
S3151800416008B5804701F0D6FC024B1868BFF35B8F81
S31518004170704700BFC400100008B5FFF7F5FFFFF73A
S31518004180EFFF08B58047FFF7F7FF0000024B1868E6
S31518004190BFF35B8F704700BFC800100008B5FFF764
S315180041A0F5FFFFF7EEFF0378472B17D143784E2B11
S315180041B014D18378552B11D1C378432B0ED103799B
S315180041C0432B0BD143792B2B08D183792B2B05D174
S315180041D0C07901288CBF0020012070470020704745
S315180041E02DE9F3411E460378472B0D460246C17941
S315180041F013D143784E2B10D18378552B0DD1C37814
S31518004200432B0AD10379462B07D143794F2B04D177
S315180042108379522B01D1002931D01046FFF7C3FFFD
S3151800422080F00100C0B200230024019453BB58BB90
S3151800423001290ABF52F8203CA2F12003783B012934
S3151800424008BF52F8202C1C6818BF583201922368F0
S3151800425020469B689847C8B1019B1B6801930227A3
S315180042602B6801AAD3F81080214601232846C04797
S3151800427070B1019B3360384602B0BDE8F081012366
S315180042800846D1E7034CE2E7034CE0E70127E7E7E6
S315180042900746F0E71CB7001824B7001810B50446EF
S315180042A0FFF75AFF02462046A4F12001FFF77BFFCD
S315180042B060B154F8043C0133012B44F8043C03D193
S315180042C0936844F8083C9160012010BD9368002B50
S315180042D0F9D0FFF751FFFDF75BB8000010B5034B97
S315180042E00360044600F0B2F8204610BD84B60018E4
S315180042F010B50446FFF7F2FF20460C21FFF7EBFF37
S31518004300204610BD2DE9F041069E9642074688467E
S3151800431015461C460AD0B868036806961E6A2A46C9
S3151800432023464146B446BDE8F0416047194600F0B9
S3151800433057F80028EFD00620BDE8F0812DE9F14F97
S315180043400E461946834617469946DDE90A4ADDE9B7
S315180043500C8500F045F890B1002E2C602F7109DB02
S315180043603444A0450CBF06240124AC71002001B0CA
S31518004370BDE8F08F0236F9D10123AB71F6E7444553
S3151800438006D15146584600F02BF808B16F71EDE783
S31518004390DBF808000368CDE90C85CDE90A4ADC6923
S315180043A03A464B463146A44601B0BDE8F04F604741
S315180043B02DE9F04104460D4616461F4600F077F8DB
S315180043C048B9A06803689C6932463B462946A44604
S315180043D0BDE8F0416047BDE8F0817047002070479E
S315180043E0814208B50ED0406803782A2B0CD049684C
S315180043F00B782A2B08BF013102F081FFB0FA80F042
S31518004400400908BD0120FCE70020FAE77FB5002423
S315180044101023CDE902340368009415469E698DF879
S3151800442004406B461268B0479DF8043003F0060343
S31518004430062B03BF009B2B600120204604B070BDDD
S31518004440009890420CBF06200120704710B5034B08
S3151800445003600446FFF7C1FF204610BDF8B60018E2
S3151800446010B50446FFF7F2FF20460821FFF733FF81
S31518004470204610BD2DE9F0419846DDE90834069E20
S315180044809E420746154607D10799FFF7A9FF18B1A7
S3151800449065710020BDE8F08141463846FFF7A0FF58
S315180044A00028F6D0012326602571A371F1E738B5E7
S315180044B015461C46FFF794FF20B10823E360062330
S315180044C02560237138BD2DE9F04105460C46164680
S315180044D01F46FFF785FF48B9032F07D823683246CA
S315180044E0294620465B69BDE8F0411847BDE8F081CA
S315180044F081F0004102E000BF83F0004330B54FEA77
S3151800450041044FEA430594EA050F08BF90EA020FE3
S315180045101FBF54EA000C55EA020C7FEA645C7FEA76
S31518004520655C00F0E2804FEA5454D4EB5555B8BF99
S315180045306D420CDD2C4480EA020281EA030382EA0A
S31518004540000083EA010180EA020281EA0303362D9C
S3151800455088BF30BD11F0004F4FEA01314FF4801C6F
S315180045604CEA113102D0404261EB410113F0004F81
S315180045704FEA03334CEA133302D0524263EB430338
S3151800458094EA050F00F0A780A4F10104D5F1200ED6
S315180045900DDB02FA0EFC22FA05F2801841F1000131
S315180045A003FA0EF2801843FA05F359410EE0A5F105
S315180045B020050EF1200E012A03FA0EFC28BF4CF036
S315180045C0020C43FA05F3C01851EBE37101F00045EC
S315180045D007D54FF0000EDCF1000C7EEB00006EEBF9
S315180045E00101B1F5801F1BD3B1F5001F0CD3490883
S315180045F05FEA30004FEA3C0C04F101044FEA4452DA
S3151800460012F5800F80F09A80BCF1004F08BF5FEA60
S31518004610500C50F1000041EB045141EA050130BD40
S315180046205FEA4C0C404141EB010111F4801FA4F1E3
S315180046300104E9D191F0000F04BF01460020B1FA38
S3151800464081F308BF2033A3F10B03B3F120020CDA70
S315180046500C3208DD02F1140CC2F10C0201FA0CF04E
S3151800466021FA02F10CE002F11402D8BFC2F1200CB3
S3151800467001FA02F120FA0CFCDCBF41EA0C01904069
S31518004680E41AA2BF01EB0451294330BD6FEA0404B2
S315180046901F3C1CDA0C340EDC04F11404C4F120029D
S315180046A020FA04F001FA02F340EA030021FA04F3AF
S315180046B045EA030130BDC4F10C04C4F1200220FA06
S315180046C002F001FA04F340EA0300294630BD21FA44
S315180046D004F0294630BD94F0000F83F4801306BF0A
S315180046E081F480110134013D4EE77FEA645C18BFFE
S315180046F07FEA655C29D094EA050F08BF90EA020F95
S3151800470005D054EA000C04BF1946104630BD91EA8C
S31518004710030F1EBF0021002030BD5FEA545C05D18F
S315180047204000494128BF41F0004130BD14F58004CE
S315180047303CBF01F5801130BD01F0004545F0FE4142
S3151800474041F470014FF0000030BD7FEA645C1ABF77
S31518004750194610467FEA655C1CBF0B46024650EAAE
S31518004760013406BF52EA033591EA030F41F40021DA
S3151800477030BD00BF90F0000F04BF0021704730B560
S315180047804FF4806404F132044FF000054FF0000135
S3151800479050E700BF90F0000F04BF0021704730B5F6
S315180047A04FF4806404F1320410F0004548BF4042CB
S315180047B04FF000013EE700BF42004FEAE2014FEA20
S315180047C031014FEA02701FBF12F07F4393F07F4FFB
S315180047D081F06051704732F07F4208BF704793F0FE
S315180047E07F4F04BF41F40021704730B54FF4607411
S315180047F001F0004521F000411CE700BF50EA010214
S3151800480008BF704730B54FF000050AE050EA0102BC
S3151800481008BF704730B511F0004502D5404261EB2C
S3151800482041014FF4806404F132045FEA915C3FF46D
S31518004830D8AE4FF003025FEADC0C18BF03325FEA0A
S31518004840DC0C18BF033202EBDC02C2F1200300FABB
S3151800485003FC20FA02F001FA03FE40EA0E0021FAE0
S3151800486002F11444BDE600BF7BB972B90029BEBF78
S3151800487000204FF0004106E008BF00281CBF6FF06B
S3151800488000414FF0FF3001F043B9ADF1080C6DE966
S3151800489004CE002909DB002B1ADB00F04DF8DDF8F1
S315180048A004E0DDE9022304B07047404261EB4101A0
S315180048B0002B1BDB00F040F8DDF804E0DDE90223ED
S315180048C004B0404261EB4101524263EB4303704727
S315180048D0524263EB430300F02FF8DDF804E0DDE9FC
S315180048E0022304B0404261EB41017047524263EB28
S315180048F0430300F021F8DDF804E0DDE9022304B0F3
S31518004900524263EB4303704753B94AB9002908BFAB
S3151800491000281CBF4FF0FF314FF0FF3001F0F8B8F8
S31518004920ADF1080C6DE904CE00F006F8DDF804E0E8
S31518004930DDE9022304B070472DE9F047089E0446C6
S315180049408846002B4BD18A42154667D9B2FA82F2AD
S315180049504AB1C2F1200701FA02F320FA07F7954087
S3151800496047EA030894404FEA154E230CB8FBFEF7A6
S315180049701FFA85FC0EFB178843EA084307FB0CF160
S31518004980994209D9EB1807F1FF3080F01B8199423B
S3151800499040F21881023F2B445B1AA4B2B3FBFEF017
S315180049A00EFB103344EA034400FB0CFCA44509D95A
S315180049B02C1900F1FF3380F00781A44540F20481D9
S315180049C002382C4440EA0740A4EB0C0400271EB119
S315180049D0D4400023C6E900433946BDE8F0878B4228
S315180049E009D9002E00F0EB800027C6E900013846E9
S315180049F03946BDE8F087B3FA83F7002F47D18B42C3
S31518004A0002D3824200F2FA80841A61EB0303012072
S31518004A109846002EE0D0C6E90048DDE702B9FFDE69
S31518004A20B2FA82F2002A40F08F80491B4FEA154EDF
S31518004A301FFA85F80127B1FBFEFC230C0EFB1C118F
S31518004A4043EA014308FB0CF1994207D9EB180CF11C
S31518004A50FF3002D2994200F2CD808446591AA3B289
S31518004A60B1FBFEF00EFB101443EA044408FB00F8F1
S31518004A70A04507D92C1900F1FF3302D2A04500F240
S31518004A80B6801846A4EB080440EA0C409FE7C7F125
S31518004A90200CBB4022FA0CFE4EEA030E01FA07F46C
S31518004AA020FA0CF521FA0CF34FEA1E482543B3FBFE
S31518004AB0F8F92C0C08FB19331FFA8EFA44EA03434B
S31518004AC009FB0AF49C4202FA07F200FA07F10BD91D
S31518004AD01EEB030309F1FF3080F087809C4240F2F9
S31518004AE08480A9F1020973441B1BADB2B3FBF8F01D
S31518004AF008FB103345EA034400FB0AFAA24508D915
S31518004B001EEB040400F1FF336BD2A24569D90238B3
S31518004B10744440EA0940A0FB0289A4EB0A044C45F8
S31518004B20C2464B4654D351D0002E69D0B1EB0A0574
S31518004B3064EB030404FA0CFCFD40FC404CEA050542
S31518004B40C6E90054002747E7C2F1200320FA03F705
S31518004B50954001FA02F021FA03F34FEA154E38434D
S31518004B60010CB3FBFEF71FFA85F80EFB173341EA63
S31518004B70034107FB08F38B4204FA02F407D96918B4
S31518004B8007F1FF3C2FD28B422DD9023F2944CB1A6D
S31518004B9081B2B3FBFEF00EFB103341EA034100FB72
S31518004BA008F38B4207D9691800F1FF3C17D28B42DC
S31518004BB015D902382944C91A40EA07473BE7374648
S31518004BC0304609E70746E7E61846FBE64145ABD205
S31518004BD0B8EB020A69EB0E0201381346A4E76046E1
S31518004BE0E9E7184695E76746D1E781467CE7023834
S31518004BF02C4447E7ACF1020C2B442FE7384608E75C
S31518004C003746E9E603685A004CBF43F0004323F0E1
S31518004C1000431844704700BF61B32DE9F84F01F1FE
S31518004C20FF3A90460646D146002707EB090404EBDF
S31518004C30D4746410E50071190846FFF7E3FFA2451E
S31518004C40834605F10800304409D0FFF7DBFFC3455A
S31518004C5000F1FF3005D8404509D2671CE5E7C34582
S31518004C6005D9A74202D004F1FF39DEE7002108462C
S31518004C70BDE8F88F08467047012807D0022807D0E4
S31518004C80044B00280CBF184600207047024870478E
S31518004C900248704765530018695300186D53001879
S31518004CA030B5254B83B004468D1E4BB301A9284653
S31518004CB0AFF30080F0B101992A46FFF7ADFF014620
S31518004CC0C0B1FFF79FFF4B68A064012B2ED0002BB5
S31518004CD001F1040026DBFFF795FF0023C4E913034F
S31518004CE00368002B12DBFFF78DFF0023206118469F
S31518004CF003B030BD002323610923184603B030BD25
S31518004D000E490F48091AC9100191D5E7C3F3036074
S31518004D10FFF7B2FF002814BF0023092320611846A5
S31518004D2003B030BD0123C4E91303D9E70023236177
S31518004D300523184603B030BD000000004CBC00180F
S31518004D4014BB00180368DA0710B5044606D49B0787
S31518004D5000F1480009D500F05FFC2368590709D50A
S31518004D601A070ED5DB0613D510BD00F04DFC2368C7
S31518004D705907F5D404F1D00000F056FC23681A0739
S31518004D80F0D404F5A87000F057FC2368DB06EBD4C2
S31518004D9004F5E870BDE8104000F092BC036803B152
S31518004DA003441846704700BF09207047704700BF74
S31518004DB070B504460D4608E02B6C63612A462369D4
S31518004DC0214601209847082808D1296C2046FFF764
S31518004DD067FF06460028EFD000F09CFE0728FBD197
S31518004DE03046296CFFF7E2FF281D00F001FC00BFD2
S31518004DF02DE9F0470C1D054617460FCCADF5727D0B
S31518004E0003AE0FC60FCC0FC60FCC0FC694E80F0013
S31518004E1002ACD5F80C80D5F8189086E80F00002358
S31518004E20236021E0236C6B614FF4F07221467AA857
S31518004E3001F026F92B697AAA294630469847889BA5
S31518004E40CDE900498246636431462B462A4601203D
S31518004E50C0470746F8B94FF4F0727AA9204601F010
S31518004E600FF9BAF1080F1CD1216C2846FFF718FF65
S31518004E70002F08BF0926074618BF0A260028D1D0D2
S31518004E80A36B46F01001CDE900492A466364012058
S31518004E902B46C04700B1092738460DF5727DBDE887
S31518004EA0F087BAF1070FF6D13846216CFFF77EFF67
S31518004EB003A800F09DFB00BF406C7047F0B5CB6BA4
S31518004EC00B640D1D0F4606460FCDF9B001AC0FC485
S31518004ED00FCD0FC40FCD0FC495E80F004FF0FF3557
S31518004EE084E80F00009506E033696A46314698470C
S31518004EF00828044608D110993046FFF7D1FE002835
S31518004F00F2D0092079B0F0BD6846FFF71BFF062CD2
S31518004F10F7D139463046FFF74BFF00BF30B4DD6B8B
S31518004F20C160826119461D64002230BC60E700BF6B
S31518004F3070B5C66843690B64BEB903690A46044668
S31518004F400D46014602209847072807D0082803D19E
S31518004F5029462046FFF72CFF00F0DCFD3046296C69
S31518004F60FFF724FF281D00F043FB0122FFF740FF3F
S31518004F7000F0D0FDC2681AB1CA6B0A64002237E77E
S31518004F809CE700BF704700BF836813B10146012034
S31518004F9018477047042907D8DFE801F00308060800
S31518004FA008000BB90F2A03D9022070470120704751
S31518004FB000EB820218465368009A1360704700BFC8
S31518004FC010B584B0002303AC0A4600941946FFF7BF
S31518004FD0E1FF039804B010BD042907D8DFE801F0F3
S31518004FE00308060808000BB90F2A03D902207047D0
S31518004FF00120704700EB8200009A1268426018463A
S31518005000704700BF10B584B004AC002344F8042DD3
S315180050100A4600941946FFF7DFFF04B010BD00BF1B
S31518005020F0B5D36B1364151D07460E460FCDADF5B7
S315180050300F7D17AC0FC40FCD0FC40FCD0FC495E855
S315180050400F004FF0FF3584E80F00169510E016A8EC
S31518005050FFF7D8FF314616A8B84716AA694678B991
S31518005060049B08209847052804460AD0092807D023
S3151800507026996846FFF714FE6A460C210028E6D0E2
S31518005080092416A8FFF75EFE20460DF50F7DF0BD24
S315180050902DE9F04F0D46C96C89B00C1D164600F067
S315180050A0030B0A6806941F46002B68D0130CD9B256
S315180050B012048DF81D30022304EB810405928DF835
S315180050C01C302B6DBBF1020F08BFAC6B13F001033C
S315180050D046D1019300F008030093D4F80090B9F173
S315180050E0000F00F0F380022F45D0B4F80090B4F802
S315180050F002800434AB6C28F0010A0F2130469A441A
S31518005100FFF75EFF824534D829F0010353448342E2
S3151800511094BF002001204FEA480808F0020809F059
S31518005120010948EA0908B8F1010F3AD031D3B8F1A4
S31518005130020F1AD1236823F0004ABBF1000F66D17B
S3151800514030B1009A002A6CD0BAF1000F00F09080A6
S31518005150002B00DA04340AF1010304EB8304BCE7DC
S31518005160304605A900F046FB78B1092009B0BDE81C
S31518005170F08F0020CFE7D4F804800834BAE712027B
S3151800518003230592ADF81C309BE7082009B0BDE84B
S31518005190F08FBBF1000F02D0002840F0B480043421
S315180051A09BE7BBF1000F18D1A8B1D4E90023991CCD
S315180051B04FEAD272D9D005F158010133049100F0A3
S315180051C0B580201DFFF7EAFD04AB01462846FFF718
S315180051D007F8002867D108347FE70D213046D5F83F
S315180051E02080FFF7EDFE8045F5D1AB6A9C42F2D1DF
S315180051F02046FFF707FD0F2102463046FFF702FF4C
S3151800520030462A460021FFF7FDFE0720AEE70D219E
S315180052103046D5F82080FFF7D3FE804532D0236874
S3151800522096E7BAF1000F23D005F1580304F10408E4
S31518005230CDF808B0DDF800900397A3461C4602E0A7
S315180052405745B94640D040460494FFF7A7FD04AB2E
S31518005250014600222846FEF7C3FF09F1010708F1A7
S3151800526004080028ECD0D1455C46DDE902B7D6D152
S3151800527030460D21FFF7A4FE049B2862C5E90934C0
S31518005280062073E7AB6A9C42C9D104224FF0000886
S31518005290A318C5E90AA8C5E90C23236843454DDBBD
S315180052A00123019357E780460D213046FFF788FE04
S315180052B0B8F1020F28623ED12B46049A43F82C2FD8
S315180052C06B62AC62062051E75C46D1E705A9304609
S315180052D000F090FA00287FF448AF019B002B3FF4AA
S315180052E054AF0F213046FFF76BFE0E2102463046AB
S315180052F0FFF788FE30461A4A0F21FFF783FE07206C
S3151800530009B0BDE8F08F2046FFF77CFC0434074649
S31518005310AC632846FEF7C2FF00283FF426AF304696
S315180053203A460F21FFF76EFE07201FE730460D217C
S31518005330FFF746FE2862049B6B62C2E70AF101007A
S3151800534004EB8000FFF75EFC0F2102463046FFF79C
S3151800535059FE30462A464146FFF754FE072005E710
S31518005360A3400018002393E6012391E602238FE653
S315180053702DE9F0410546C4B0042906D8DFE801F046
S315180053804D2B05030900032B5FD0022044B0BDE85E
S31518005390F081002BF9D1102AF7D82B68DC0600F11A
S315180053A0F48022AC2046019200F094F9A86B019A79
S315180053B00023012606FA03F1114203D0016844F8C6
S315180053C0231004300133042BF4D1A863204600F0CF
S315180053D077F90020DAE7012B4FEA124697B252D036
S315180053E0052BD2D106EB0708B8F1200FCDD80F2E12
S315180053F040F29980B846002F40F0DB80AA6BAA636A
S315180054000F2E40F2BE80B8F1000F02D002A800F0AD
S315180054100BF9002044B0BDE8F081002BB5D1AC6B78
S3151800542097B2281D012606FA03F1394203F1010342
S3151800543002D0216801600434102B00F10400F2D167
S3151800544012F40050E5D1AC63A0E7160C97B2F31925
S31518005450102B9AD82B681A075DD422AC204600F078
S315180054600DF904EBC601AB6B3FB103EBC702186825
S3151800547041F8040B04339342F9D12046AB6300F08C
S31518005480DBF8002082E7F219102A3FF67EAF0F2EBE
S315180054903FF67BAF2A68D10708D5284622F00302C3
S315180054A040F8482B019300F0B3F8019B019322AC06
S315180054B0204600F0ADF8A96B019B002F00F09580EF
S315180054C07F0004EBC6044FF00008043C01EB87028A
S315180054D051F8040B44F8040F9142F9D1B8F1000FB2
S315180054E00FD002AC102E314638BF102104EBC10183
S315180054F0843902EBC80452F8040B41F8040F94429D
S31518005500F9D1012B7FF47BAF22AC0432AA63204673
S3151800551000F07AF87DE723F008032B6005F5A870EC
S3151800552000F0ACF899E7B8F1100F2A6843D9D007FC
S31518005530A8F110080BD5284622F0010242F0020203
S3151800554040F8482B019300F06BF82A68019B510725
S3151800555025D40F2E04D822A8019300F061F8019BD8
S31518005560019302AC204600F063F8C6F11001002939
S31518005570AA6B019BB6DD22AC4F0004EBC60411469C
S31518005580A3E722A800F048F83DE723F010032B60A4
S3151800559005F5E870019200F09DF8019A01E7284692
S315180055A022F0040240F8D02B019300F041F8019B39
S315180055B0CFE72A68CBE7D0070AD5284622F001029A
S315180055C042F0020240F8482B019300F029F8019B9B
S315180055D0019322AC204600F023F8B846A96B019B2C
S315180055E0002F7FF46DAF0A4609E70A468DE700BF1C
S315180055F000F1340191E838009C46A6464CF8045D43
S3151800560090E8FF0FE54600BD90EC210B704700BFF0
S3151800561080EC210B704700BF90EC200B704700BF41
S3151800562080EC200B704700BFD0EC200B704700BFF2
S31518005630C0EC200B704700BFF0EC0201F0EC021131
S31518005640F0EC0221F0EC0231F0EC0241F0EC0251E0
S31518005650F0EC0261F0EC0271F0EC0281F0EC0291D0
S31518005660F0EC02A1F0EC02B1F0EC02C1F0EC02D1C0
S31518005670F0EC02E1F0EC02F1704700BFE0EC020139
S31518005680E0EC0211E0EC0221E0EC0231E0EC024120
S31518005690E0EC0251E0EC0261E0EC0271E0EC028110
S315180056A0E0EC0291E0EC02A1E0EC02B1E0EC02C100
S315180056B0E0EC02D1E0EC02E1E0EC02F1704700BF49
S315180056C0B0FC0181B0FC0191B0FC01A1B0FC01B1A4
S315180056D0704700BFA0FC0181A0FC0191A0FC01A1AC
S315180056E0A0FC01B1704700BFEC4600B52DE900508B
S315180056F02DE9FF1F4FF000032DE90C0001A9FFF754
S31518005700DDFBDDF840E012B0704700BFEC4600B58F
S315180057102DE900502DE9FF1F4FF000032DE90C006D
S3151800572001A9FFF705FCDDF840E012B0704700BF8D
S31518005730EC4600B52DE900502DE9FF1F4FF0000388
S315180057402DE90C0001A9FFF715FCDDF840E012B0B1
S31518005750704700BFEC4600B52DE900502DE9FF1F34
S315180057604FF000032DE90C0001ABFFF7D7FBDDF86E
S3151800577040E012B0704700BFEC4600B52DE9005066
S315180057802DE9FF1F4FF000032DE90C0001AAFFF7C2
S3151800579047FCDDF840E012B0704700BF027A82B9C4
S315180057A0437AABB14268013B10B4437213680321C4
S315180057B0141D01721A02446002605DF8044B180E3B
S315180057C070470368013A02721A020260180E70478F
S315180057D0B020704700B585B003AA00230092194679
S315180057E00C22FFF7D7FB039805B05DF804FB00BF42
S315180057F0F0E700BF2DE9F043054685B00E464FF099
S3151800580000083046FFF7CAFFB028044600F0B180FA
S31518005810070620D500F0F003802B65D0902B36D0E4
S31518005820A02B78D0B02B47D0C02B00F08A8000F080
S31518005830F803D02B0BD100F00702013242F40022F4
S31518005840052301212846FFF793FD0028D9D0092002
S3151800585005B0BDE8F0830DF10C0900231946870041
S31518005860CDF800900D222846FFF794FBFFB2039B54
S31518005870CDF80090043760064CBFDF1BFF180023D5
S3151800588019460D2228460397FFF7A6FBB9E700F03D
S315180058900D030D2BDBD003AF002300F00F021946C2
S315180058A000972846FFF776FB0023009719460D2226
S315180058B02846FFF791FBA4E7B1285FD0B22800F07D
S315180058C0CC80B3287ED000F0FC03B42BBFD000F0F8
S315180058D007020132012342F4002219462846FFF72F
S315180058E047FD00288DD0B2E73046FFF757FF240250
S315180058F00443B4F5004FAAD024010023A2B21946D6
S315180059002846FFF735FD0028A1D114F4004F18BF1B
S315180059104FF0010875E7C24302F007034FF47F62A0
S315180059201A41010702F47F624FF0000348BF42F4A0
S31518005930804219462846FFF71BFD00283FF461AF41
S3151800594085E7C62851D0C7285AD000F0F803C02BCF
S3151800595069D0C82875D0C9287FF479AF3046FFF7C3
S315180059601DFF020300F00F0002F4702201300243FB
S3151800597066E7B8F1000F14D0002069E73046FFF744
S315180059800DFF00283FF463AF10F0F0037FF45FAF0C
S31518005990024619462846FFF7EBFC00283FF431AFBC
S315180059A055E703AC43460E22414600942846FFF7B6
S315180059B0F1FA0094284643460F224146FFF70CFB9E
S315180059C0404645E73046FFF7E9FE010300F00F00B1
S315180059D001F47021421C01230A4328461946FFF791
S315180059E0C7FC00283FF40DAF31E73046FFF7D6FE67
S315180059F0010300F00F0001F47021421C0323EBE7AA
S31518005A003046FFF7CBFE024600283FF420AF10F0D1
S31518005A10F0037FF41CAF04212846FFF7A9FC0028E1
S31518005A203FF4EFAE13E700F00F020132032342F4FE
S31518005A30202219462846FFF79BFC00283FF4E1AEC2
S31518005A4005E73046FFF7AAFE00F0F00200F00F0354
S31518005A501032013343EA0232F2E600230DF10C0943
S31518005A600D221946CDF800902846FFF793FA3046CE
S31518005A70FFF794FE02064FF002070CD5039B00F0C1
S31518005A807F00B840034430460393FFF787FE0306AA
S31518005A9007F10707F2D4039BCDF8009000F07F04B6
S31518005AA003F50172BC400023144419460D222846FA
S31518005AB00394FFF791FAA4E610B5C36C84B05A683C
S31518005AC003208DF80C00DC798DF80D40120208338E
S31518005AD0084601A901920293FFF78CFE04B010BD87
S31518005AE008B5FFF785FE806C08BD00BF08B5FFF73F
S31518005AF07FFEC06CC37900EB8300083008BD00BF79
S31518005B0008B500F007F800BF08B5FFF7F9FF00BFA2
S31518005B10704700BF08B5062001F072FB0120FBF79D
S31518005B201DFC002301461A46184602F0ADBB0000BC
S31518005B30014B1868704700BFCC00100008B5074B1A
S31518005B40044613B1002102F003FC054B1868836A5A
S31518005B5003B198472046FBF701FC00BF5183001894
S31518005B60D0B700188A892DE9F041054610070C466A
S31518005B7058D44B68002B05DC0B6C002B02DC00207C
S31518005B80BDE8F081E66A002EF9D0002312F480529F
S31518005B902F68216A2B6032D0606DA3895A0705D504
S31518005BA06368C01A636B0BB1236CC01A00230246D4
S31518005BB0E66A216A2846B047431CA38906D1296894
S31518005BC01D2948D8294ACA40D60744D500226260FA
S31518005BD0D9042269226004D5421C01D12B6803B965
S31518005BE06065616B2F600029C9D004F1440399429E
S31518005BF002D02846FBF7D4FB00206063C0E70123D8
S31518005C002846B047411CC8D12B68002BC5D01D2B80
S31518005C1001D0162B01D12F60B1E7A38943F04003B9
S31518005C20A381ADE70F69002FA9D093070E6808BFA7
S31518005C304B690F6018BF0023A6EB07088B60B8F1F5
S31518005C40000F9CDD43463A46216AA66A2846B047A5
S31518005C50002806DCA38943F04003A3814FF0FF30E8
S31518005C608EE70744A8EB0008E9E700BF01004020CB
S31518005C7038B50B6905460C46DBB118B183690BB903
S31518005C8000F072F80C4B9C4209D16C68B4F90C30D0
S31518005C907BB121462846BDE83840FFF763BF074B5E
S31518005CA09C4201D1AC68F1E7054B9C4208BFEC68F1
S31518005CB0ECE7002038BD00BF90B70018B0B7001841
S31518005CC070B70018014620B9044B0549186800F04A
S31518005CD0CBB8044B1868FFF7CBBF00BFD0B7001876
S31518005CE0715C0018CC001000002310B50446C0E9FA
S31518005CF00033836081814366C281C0E904338361BE
S31518005D00194608225C3000F0C6F9054B6362054B4C
S31518005D10A362054BE362054B2462236310BD00BFE3
S31518005D20797200189B720018D3720018F77200184F
S31518005D30014900F099B800BF715C001870B54A1E89
S31518005D40682555430E4605F17401FBF725FB0446F5
S31518005D5040B10021C0E900160C30A06005F16802B8
S31518005D6000F099F9204670BD836910B5044633BB17
S31518005D70C0E912330365124B124A1B6882629842B5
S31518005D8004BF0123836100F01FF86060204600F00D
S31518005D901BF8A060204600F017F80022E0600421E6
S31518005DA06068FFF7A1FF01220921A068FFF79CFF91
S31518005DB002221221E068FFF797FF0123A36110BDA5
S31518005DC0D0B70018315D0018F8B51B4B1E68B369BB
S31518005DD0074613B93046FFF7C7FF4836D6E90134E8
S31518005DE0013B03D5336833B13668F7E7B4F90C507D
S31518005DF06DB16834F4E704213846FFF79FFF306029
S31518005E000028F1D10C233B6004462046F8BD0B4B05
S31518005E106566C4E90055A560C4E90335C4E90555A6
S31518005E200822294604F15C0000F035F9C4E90D553D
S31518005E30C4E91255E9E700BFD0B700180100FFFF03
S31518005E4038B5074D074C641BA4101CB9BDE838407B
S31518005E5004F0BEBF013C55F824309847F5E700BF5B
S31518005E60A4021000A80210002DE9F84380468946BE
S31518005E7000F14804002614B93046BDE8F883D4E981
S31518005E800175013F01D52468F5E7AB89012B07D9C0
S31518005E90B5F90E30013303D029464046C8470643A4
S31518005EA06835EEE770B50D4E0D4CA41BA4100025F1
S31518005EB0A54209D10B4E0C4C04F084FFA41BA41068
S31518005EC00025A54205D170BD56F8253098470135ED
S31518005ED0EEE756F8253098470135F2E79C02100090
S31518005EE09C0210009C021000A402100070B50E4609
S31518005EF0B1F90E10002996B014461D4607DA00238C
S31518005F002B60B3891A0610D44FF480630EE06A46E4
S31518005F1003F0E4F80028F2DB019A02F47042A2F5C5
S31518005F2000535A425A412A60EEE740230020236064
S31518005F3016B070BD8B8973B59D0706460C4607D5F6
S31518005F4004F14703236023610123636102B070BD26
S31518005F5001AB6A46FFF7CAFF009905463046FBF7BC
S31518005F601BFA48B9B4F90C309A05EFD423F0030399
S31518005F7043F00203A381E3E70D4BB362A3892060C4
S31518005F8043F08003A381009B6361019B20615BB191
S31518005F90B4F90E10304603F0D9FB28B1A38923F0C3
S31518005FA0030343F00103A381A3891D43A581CDE70C
S31518005FB0315D0018024B01461868FBF7EDB900BFB2
S31518005FC0CC001000024B01461868FBF7E9B900BF70
S31518005FD0CC001000000000000000000000000000C7
S31518005FE001F0FF01102A2BDB10F0070F08D010F86C
S31518005FF0013B013A8B422DD010F0070F42B3F6D170
S31518006000F0B441EA012141EA014122F007047FF088
S3151800601000070023F0E80256083C85EA010586EADF
S31518006020010685FA47F5A3FA87F586FA47F6A5FA1B
S3151800603087F68EB9EED1F0BC01F0FF0102F0070227
S3151800604032B110F8013B013A83EA010313B1F8D1D2
S315180060500020704701387047002D06BF35460338B3
S31518006060073815F0010F07D1013015F4807F02BFEC
S31518006070013015F4C03F0130F0BC0138704700BF3D
S3151800608010B5431E0A44914200D110BD11F8014BB8
S3151800609003F8014FF7E702440346934200D17047CD
S315180060A003F8011BF9E738B502FB01F42146FBF7A3
S315180060B073F9054618B122460021FFF7ECFF28466A
S315180060C038BD000038B50546002945D051F8043CBE
S315180060D00C1F002BB8BFE418FBF752F91F4A1368B8
S315180060E0104633B9636014602846BDE83840FBF79C
S315180060F04BB9A3420CD921686218934204BF1A6897
S315180061005B68636004BF521822600460ECE71346AC
S315180061105A680AB1A242FAD919685818A0420BD17E
S3151800612020680144581882421960DDD110685268F7
S315180061305A6001441960D7E702D90C232B60D3E7BC
S31518006140206821188A4204BF11685268626004BF29
S31518006150091821605C60C7E738BD00BF202F100002
S3151800616070B5CD1C25F0030508350C2D38BF0C2548
S31518006170002D064601DBA94203D90C233360002003
S3151800618070BDFBF7FDF8214A1468214691B9204CD9
S3151800619023681BB9304600F0F7FF206029463046C1
S315180061A000F0F2FF431C24D10C2333603046FBF772
S315180061B0EBF8E4E70B685B1B18D40B2B0FD90B60B5
S315180061C0CD50CC183046FBF7DFF804F10B00231D31
S315180061D020F00700C31AD3D05A42E250D0E78C42B7
S315180061E04B6816BF636013600C46EBE70C464968AC
S315180061F0CCE7C41C24F00304A04205D0211A30466B
S3151800620000F0C2FF0130CFD02560DBE7202F100049
S31518006210242F1000F8B5074614460E4621B9114624
S31518006220BDE8F840FBF7B8B822B9FBF7B9F8254628
S315180062302846F8BD03F0E4FEA0420FD221463846A0
S31518006240FBF7AAF805460028F2D031462246FFF792
S3151800625017FF31463846FBF7A3F8E9E73546E7E76F
S315180062609368013B002B10B4936008DA9469A34233
S3151800627001DB0A2903D15DF8044B01F033BF13681B
S31518006280581C1060197008465DF8044B7047F8B52D
S3151800629006460F461446D518AC4201D1002007E031
S315180062A03A4614F8011B3046FFF7DAFF431CF3D1C0
S315180062B0F8BD00002DE9F04F9DB00C461746039324
S315180062C0064618B183690BB9FFF74EFD7B4B9C4206
S315180062D057D17468A38918075DD52369002B5AD03E
S315180062E00023099320238DF8293030238DF82A307E
S315180062F04FF0010BB846454615F8013B0BB1252B57
S3151800630054D1B8EB070A0BD053463A4621463046C5
S31518006310FFF7BDFF013000F0C280099B5344099373
S3151800632098F80030002B00F0BA8000234FF0FF32A7
S31518006330CDE90523049307938DF853301A93A8468D
S31518006340052218F8011B5E48FFF74AFE049B78BB26
S31518006350D90644BF20228DF853201A0744BF2B2292
S315180063608DF853202A782A2A2AD0079AA846002078
S315180063700A25414611F8013B303B092B69D960B310
S3151800638024E0504B9C4201D1B468A3E74E4B9C4283
S3151800639008BFF4689EE72146304601F007FF00283B
S315180063A09ED04FF0FF301DB0BDE8F08FA846A2E78B
S315180063B0434A801A0BFA00F0184304904546BEE784
S315180063C0039A111D12680391002A01DB079204E053
S315180063D0524243F002030792049398F800302E2B8A
S315180063E00ED198F801302A2B38D1039B1A1D1B6839
S315180063F00392002BB8BF4FF0FF3308F1020805933C
S31518006400324D98F8001003222846FFF7E9FD40B1EF
S315180064104023401B03FA00F0049B034308F10108CC
S31518006420049398F800102A488DF82810062208F1C7
S315180064300107FFF7D5FD002837D0264B1BBB039B5A
S31518006440073323F0070308330393099B4B44099337
S3151800645050E705FB0232012088468AE7002308F137
S315180064600108059319460A25404610F8012B303ABB
S31518006470092A03D9002BC3D00591C1E705FB0121D1
S3151800648001238046F0E703AB00932246124B04A97A
S31518006490304600F0B5F8B0F1FF3F8146D5D1A38953
S315180064A05B063FF57EAF09987DE703AB009322465E
S315180064B0094B04A9304600F05FFBECE790B70018CB
S315180064C0D4B70018B0B7001870B70018DAB70018A4
S315180064D0DEB70018016600188F6200182DE9F0471C
S315180064E088B0002B149F109EDDE9121A1D4627F05E
S315180064F02007BBBF03F100431D4600232D23144676
